:020000040800F2
:10000000700B002069020008F51B00087717000834
:10001000F11B000879040008D5200008000000004A
:10002000000000000000000000000000591D000852
:100030007D04000800000000F71B00085B1D00089D
:10004000830200088302000883020008830200087C
:10005000830200088302000883020008830200086C
:10006000830200088302000883020008830200085C
:10007000830200088302000883020008830200084C
:10008000830200088302000883020008830200083C
:10009000830200088302000883020008830200082C
:1000A000830200088302000883020008830200081C
:1000B000830200088302000883020008830200080C
:1000C00083020008830200088302000883020008FC
:1000D00083020008C520000883020008830200088C
:1000E00083020008830200088302000883020008DC
:1000F00083020008830200088302000883020008CC
:1001000083020008830200088302000883020008BB
:1001100083020008830200088302000883020008AB
:10012000830200088302000883020008830200089B
:10013000830200088302000883020008830200088B
:10014000830200088302000883020008830200087B
:10015000830200088302000883020008830200086B
:10016000830200088302000883020008830200085B
:1001700083020008830200088302000800000000D8
:10018000830200088302000800F002F800F05CF827
:100190000AA090E8000C82448344AAF10107DA45E2
:1001A00001D100F051F8AFF2090EBAE80F0013F0D8
:1001B000010F18BFFB1A43F00103184794260000F3
:1001C000B42600000A444FF0000C10F8013B13F075
:1001D000070408BF10F8014B1D1108BF10F8015BA0
:1001E000641E05D010F8016B641E01F8016BF9D193
:1001F00013F0080F1EBF10F8014BAD1C0C1B09D1EA
:100200006D1E58BF01F801CBFAD505E014F8016B5B
:1002100001F8016B6D1EF9D59142D6D370470000ED
:100220000023002400250026103A28BF78C1FBD8FF
:10023000520728BF30C148BF0B6070471FB501F09F
:10024000FDFF1FBD10B510BD00F0AAF81146FFF765
:10025000F5FF01F093FF00F0C8F803B4FFF7F2FFD9
:1002600003BC01F055FF00000948804709480047DA
:10027000FEE7FEE7FEE7FEE7FEE7FEE7FEE7FEE756
:10028000FEE7FEE704480549054A064B70470000B3
:10029000251E00088901000870050020700B002051
:1002A0007007002070070020704753EA020C00F02E
:1002B00069802DE9F04B4FF00006002B1FBFB3FA09
:1002C00083F503FA05F424FA05F65E4012BF1643DF
:1002D000B2FA82F502FA05F4C5F120051EBF22FA32
:1002E00005FC44EA0C04203556EA044C4FEA144459
:1002F00018BF641C4FF000084FF00009904271EBEA
:10030000030C39D3002919BFB1FA81F701FA07F6B6
:10031000B0FA80F700FA07F6C7F120071EBF20FAEF
:1003200007FC46EA0C062037B6FBF4FCA7EB0507F2
:10033000103F07F01F0BCBF120060CFA0BFB2CFA39
:1003400006F644BFB3460026202FA4BF5E464FF0FA
:10035000000B5BEA060C08BF4FF0010B19EB0B0911
:10036000ABFB027C48EB0608C01B06FB02CC0BFB78
:1003700003CC71EB0C01C1E70B46024641464846EF
:10038000BDE8F08B13B54FF000004FF00001AFF364
:100390000080BDE81C407047704770477047704749
:1003A000754600F02BF8AE4605006946534620F02E
:1003B0000700854618B020B5FFF764FFBDE8204070
:1003C0004FF000064FF000074FF000084FF0000B11
:1003D00021F00701AC46ACE8C009ACE8C009ACE8C4
:1003E000C009ACE8C0098D46704710B50446AFF3AC
:1003F00000802046BDE81040FFF72FBF004870473F
:100400000C0500202DE9F04104460D4616461F4616
:100410002A2001F0CFFB01224021164800F09CF970
:10042000C4F3072001F0D4FBE0B201F0D1FBC6F326
:10043000072001F0CDFBF0B201F0CAFB2B2001F048
:10044000B9FB012240210B4800F086F9C5F30720D3
:1004500001F0BEFBE8B201F0BBFBC7F3072001F0DF
:10046000B7FBF8B201F0B4FB2C2001F0A3FBBDE810
:10047000F08100000000024000BFFEE7704700BFAF
:10048000FEE770B50446A56D00F072F9064694F8D3
:100490003500022808D08020606500BF002084F865
:1004A000340000BF012070BD2068006820F01600F5
:1004B000216808602068406920F080002168486158
:1004C000206C08B9A06C28B12068006820F00800F2
:1004D000216808602068006820F001002168086039
:1004E00010E000F045F9801B05280BD9202060653D
:1004F000032084F8350000BF002084F8340000BFDA
:100500000320D0E72068006800F001000028E8D14F
:1005100094F85C103F208840A860012084F83500E2
:1005200000BF002084F8340000BF00BFBBE70146D5
:1005300091F83500022803D08020486501207047DB
:10054000052081F835000868006820F001000A687D
:1005500010600020F3E710B50446A0B201F0E0FD02
:1005600010BD0000F8B502460B460025002400200F
:100570000021D6E0012606FA01F51E6806EA050408
:10058000AC4274D11E7906F00306012E04D01E7908
:1005900006F00306022E13D190684F000326BE40DA
:1005A000B0434F00DE68BE40304390605068012683
:1005B0008E40B0431E79C6F300168E403043506023
:1005C0001E7906F00306032E09D0D0684F000326DB
:1005D000BE40B0434F009E68BE403043D0601E799D
:1005E00006F00306022E13D1CF0802F1200656F8BA
:1005F00027004E07F70E0F26BE40B0434F07FF0EF1
:100600001E69BE403043CF0802F1200646F827009D
:1006100010684F000326BE40B0431E7906F0030663
:100620004F00BE40304310605E6806F44036002E36
:1006300076D000BF002600963C4E366846F48046D1
:100640003A4F3E603E46366806F48046009600BF4C
:1006500000BF374E8F0856F827008E07370F0F263A
:10066000BE40B043334EB24202D1002624E057E0F0
:10067000314EB24201D101261EE0304EB24201D1CC
:10068000022619E02E4EB24201D1032614E02D4E6F
:10069000B24201D104260FE02B4EB24201D1052611
:1006A0000AE02A4EB24201D1062605E0284EB242A7
:1006B00001D1072600E008268F073F0FBE403043D8
:1006C0001B4E8F0846F82700224E3068A0435E6814
:1006D00006F4801606B120431E4E3060361D306889
:1006E000A0435E6806F4001606B12043194E361D7D
:1006F0003060184E361F3068A0435E6806F400363E
:1007000006B12043134E361F3060361F3068A043B9
:100710005E6806F4803606B120430E4E083E306017
:10072000491C1029FFF426AFF8BD000044380240F0
:100730000838014000000240000402400008024066
:10074000000C024000100240001402400018024059
:10075000001C0240083C01400AB1816101E00B0429
:100760008361704701480068000C7047002004E076
:10077000014800687047000004000020034800683A
:1007800003490978084401490860704704000020C3
:100790000C00002010B50D48006840F400700B49B3
:1007A00008600846006840F48060086008460068F9
:1007B00040F480700860032000F070F80F2000F013
:1007C00007F800F02BF8002010BD0000003C0240AC
:1007D00070B504460E4800784FF47A71B1FBF0F022
:1007E0000C490968B1FBF0F5284600F0CFFD08B1CF
:1007F000012070BD102C07D200222146501E00F0AF
:100800000EF80548046001E00120F2E70020F0E75F
:100810000C000020000000200800002070472DE997
:10082000F05F80460D461646002701F055FC07464E
:1008300039462A46334601F00700C0F1070ABAF1EB
:10084000040F02D94FF0040A01E0C0F1070AD146B3
:1008500000F1040ABAF1070F02D24FF0000A01E0DA
:10086000A0F1030AD4464FF0010A0AFA09FAAAF1E4
:10087000010A0AEA020A0AFA0CFA4FF0010B0BFA13
:100880000CFBABF1010B0BEA030B4AEA0B0421460C
:10089000404601F029FCBDE8F09F000000BF00F0D9
:1008A0000702064B19684FF6FF031940044B0B4330
:1008B00043EA0221014B196000BF70470CED00E0D4
:1008C0000000FA0570B504460D460CB9012070BD54
:1008D0005848006800F00700A84209D255490D7039
:1008E0000846006800F00700A84201D00120EEE7AA
:1008F000207800F0020002281DD1207800F00400CA
:10090000042805D14C48006840F4E0504A4908608A
:10091000207800F00800082805D14748006840F416
:100920006040454908604448006820F0F000A16834
:10093000084341490860207800F00100A8B36068CE
:10094000012807D13C4808380068C0F34040B8B9D6
:100950000120BCE76068022802D06068032807D144
:10096000354808380068C0F3406048B90120AEE758
:10097000314808380068C0F3400008B90120A6E7F4
:100980002D48006820F00300616808432A49086088
:10099000FFF7EEFE064609E0FFF7EAFE801B41F294
:1009A0008831884202D9032091E707E02248006895
:1009B00000F00C006168B0EB810FEDD11D480068BC
:1009C00000F00700A84209D91A490D7008460068CE
:1009D00000F00700A84201D0012078E7207800F05D
:1009E0000400042807D11448006820F4E050E168AE
:1009F000084311490860207800F00800082808D151
:100A00000D48006820F46040216940EAC1000A49AD
:100A1000086000F019F808490968C1F30311074A92
:100A2000515CC8400649086006480068FFF7D0FEE0
:100A300000204CE7003C02400838024046220008F3
:100A400000000020080000202DE9F04700240025C8
:100A50000026A1462548006800F00C0020B10428BB
:100A600005D008283AD105E0DFF8849039E0DFF8B6
:100A7000849036E01D48001F006800F03F041B48CA
:100A8000001F006800F4800078B11A481749091F58
:100A90000968C1F38811A0FB0170014622460023BA
:100AA0003846FFF702FC05460EE011480F49091FC2
:100AB0000968C1F38811A0FB01700146224600239A
:100AC0003846FFF7F2FB05460848001F0068C0F3F0
:100AD0000140401C4600B5FBF6F902E0DFF810903B
:100AE00000BF00BF4846BDE8F0870000083802405C
:100AF0000024F40000127A00F8B504460CB9012075
:100B0000F8BD207800F00100002874D0F948006892
:100B100000F00C0004280DD0F648006800F00C002E
:100B2000082813D1F348001F006800F48000B0F5D6
:100B3000800F0BD1EF4808380068C0F34040002810
:100B400059D06068002856D10120D9E700BF6068FD
:100B5000B0F5803F08D1E7480838006840F480309D
:100B6000E449083908601EE06068B0F5A02F0DD197
:100B7000E0480838006840F48020DE490839086001
:100B80000846006840F4803008600CE0D948083816
:100B9000006820F48030D7490839086008460068AA
:100BA00020F48020086000BF606890B1FFF7E0FD8E
:100BB000054606E0FFF7DCFD401B642801D9032051
:100BC0009EE7CC4808380068C0F340400028F1D0C8
:100BD00011E0FFF7CDFD054606E0FFF7C9FD401B1C
:100BE000642801D903208BE7C24808380068C0F3A5
:100BF00040400028F1D1207800F0020002285FD1A7
:100C0000BC48006800F00C0058B1BA48006800F019
:100C10000C0008281CD1B748001F006800F48000B1
:100C2000B0B9B44808380068C0F3400020B1E068AB
:100C3000012801D0012063E7AE480838006820F0A1
:100C4000F800216940EAC100AA490839086037E084
:100C5000E06800B30120A8490860FFF789FD054658
:100C600006E0FFF785FD401B022801D9032047E776
:100C7000A04808380068C0F340000028F1D09D4823
:100C80000838006820F0F800216940EAC10099495D
:100C90000839086014E0002097490860FFF768FDF4
:100CA000054606E0FFF764FD401B022801D903203A
:100CB00026E7904808380068C0F340000028F1D1CA
:100CC000207800F0080008282CD16069A8B1012024
:100CD0008A490860FFF74CFD054606E0FFF748FD2E
:100CE000401B022801D903200AE782486C300068C3
:100CF000C0F340000028F1D014E000207F490860D4
:100D0000FFF736FD054606E0FFF732FD401B0228DF
:100D100001D90320F4E677486C300068C0F3400046
:100D20000028F1D1207800F00400042870D10027B9
:100D300070483830006800F0805090B900BF002043
:100D400000906C483830006840F080506949383174
:100D500008600846006800F08050009000BF00BFA7
:100D600001276748006800F48070B0B964480068E3
:100D700040F4807062490860FFF7FAFC054606E01F
:100D8000FFF7F6FC401B022801D90320B8E65C48B7
:100D9000006800F480700028F2D000BFA06801282D
:100DA00008D154486830006840F00100514968316A
:100DB00008601DE0A06805280DD14E486830006825
:100DC00040F004004B49683108600846006840F074
:100DD000010008600CE047486830006820F001001E
:100DE0004449683108600846006820F00400086043
:100DF00000BFA068A8B1FFF7BBFC054609E0FFF7FC
:100E0000B7FC401B41F28831884202D9032077E6C3
:100E100026E0384868300068C0F340000028EED073
:100E200013E0FFF7A5FC054608E0FFF7A1FC401B17
:100E300041F28831884201D9032061E62D486830AB
:100E40000068C0F340000028EFD1012F07D12948E6
:100E50003830006820F0805026493831086000BFE3
:100E6000A069002845D02348006800F00C0008283D
:100E70005DD0A069022845D100201F490866FFF710
:100E800077FC054606E0FFF773FC401B022801D9FA
:100E9000032035E6174808380068C0F34060002892
:100EA000F1D1D4E907010843616A40EA81110122C6
:100EB000A06AC2EB500041EA00412C20005D41EAEB
:100EC00000600C49091F086001200B490866FFF704
:100ED0004FFC054606E0FFF74BFC401B022801D9FA
:100EE00003200DE6034808380068C0F3406000287E
:100EF000F1D049E00838024000004742800E4742E6
:100F000000700040002021490866FFF731FC0546CB
:100F100006E0FFF72DFC401B022801D90320EFE576
:100F20001B480068C0F340600028F2D12CE0A069A3
:100F3000012800D1E4E51648001D0668A0690128D3
:100F400020D006F48001E06981421BD106F03F0108
:100F5000206A814216D147F6C0703040616AB0EB1A
:100F6000811F0FD106F440310122A06AC2EB50006C
:100F7000B1EB004F06D106F070612C20005DB1EBA3
:100F8000006F01D00120BBE50020B9E50000474219
:100F90000038024010B504460CB9012010BD606A4B
:100FA00038B96068B0F5827F00D105E00021E161C9
:100FB00002E0002121616161A06AB0F5005F00D10B
:100FC00000BF94F8510028B9002084F85000204652
:100FD00000F04FF8022084F851002068006820F0EB
:100FE000400021680860A08800F48270218901F423
:100FF00004410843A18901F400610843217C01F008
:1010000002010843217D01F001010843218B01F415
:1010100000710843217F01F0380108432021095D58
:1010200001F080010843218D01F40051084321683B
:1010300008600421A06901EA104094F8241001F02E
:101040001001084321684860A06AB0F5005F03D131
:10105000A08D80B2216808612068C06920F400601A
:101060002168C86100206065012084F851000020DB
:1010700094E770472DE9F04F85B0044688469146C5
:101080001D460E9E0020039001200290002001903A
:1010900000BF94F85000012803D1022005B0BDE83C
:1010A000F08F012084F8500000BFFFF761FB074676
:1010B00094F851B060680490AA46BBF1010F0BD0C0
:1010C0000498B0F5827F04D1A06810B9BBF1040F79
:1010D00002D00220019052E1B8F1000F03D0B9F123
:1010E000000F00D015B90120019048E194F851009B
:1010F000042802D0052084F8510000206065C4F85F
:101100003890E587A587C4F83080E586A5862064F9
:101110006064A06AB0F5005F0DD100BF2068006870
:1011200020F40050216808602068006840F40050F6
:101130002168086000BF2068006800F04000402877
:1011400005D02068006840F0400021680860E06831
:10115000B0F5006F65D1606810B1BAF1010F15D11B
:10116000206B00882168C860206B801C2063E08EA3
:10117000401EE086E08E48B9A06AB0F5005F05D158
:101180002068006840F480502168086042E02068D0
:10119000806800F0020002281CD1E08ED0B10298D5
:1011A000012817D1206B00882168C860206B801C43
:1011B0002063E08E401EE08600200290E08E48B959
:1011C000A06AB0F5005F05D12068006840F4805047
:1011D000216808602068806800F0010068B1E08F35
:1011E00058B12068C068A16B0880A06B801CA06308
:1011F000E08F401EE08701200290FFF7B9FAC01B84
:10120000B04207D3701C28B103200190012084F85C
:101210005100B4E0E08E0028B9D1E08F0028B6D1AB
:1012200065E0606810B1BAF1010F15D1206B00784C
:1012300021680873206B401C2063E08E401EE0860E
:10124000E08E48B9A06AB0F5005F05D1206800685B
:1012500040F480502168086043E02068806800F016
:10126000020002281CD1E08ED0B10298012817D1CB
:10127000206B007821680873206B401C2063E08E8F
:10128000401EE08600200290E08E48B9A06AB0F5CA
:10129000005F05D12068006840F480502168086034
:1012A0002068806800F0010068B1E08F58B12068C4
:1012B000C068A16B0870A06B401CA063E08F401E4B
:1012C000E08701200290FFF753FAC01BB04201D320
:1012D000701C00B92EB903200190012084F8510040
:1012E0004DE0E08E0028B8D1E08F0028B5D1A06A8B
:1012F000B0F5005F12D13346012211462046009717
:1013000000F0BEFC30B1606D40F00200606503206B
:10131000019034E02068C068039000BF20688068B6
:1013200000F01000102809D1606D40F002006065E7
:101330004FF6EF7021688860012001903A463146EF
:10134000204600F059FC20B101200190202060656A
:1013500015E0A06850B900BF002000902068C06868
:10136000009020688068009000BF00BF606D10B1E1
:101370000120019002E0012084F8510000BF00BF6D
:10138000002084F8500000BF019887E670B504463D
:101390002546681EB0F1807F01D301200FE0681E52
:1013A0004FF0E02148610F214FF0FF3000F09CFE2C
:1013B00000204FF0E021886107200861002070BD07
:1013C000704770472DE9F84F04462068056820688B
:1013D000C668206847694FF00009CA4605F00F0942
:1013E000B9F1000F0AD105F0200038B106F0200055
:1013F00020B1204600F098FDBDE8F88FB9F1000F4C
:101400007CD007F0010018B906F49070002875D060
:1014100005F0010030B106F4807018B1606C40F046
:101420000100606405F0040030B107F0010018B15C
:10143000606C40F00200606405F0020030B107F01B
:10144000010018B1606C40F00400606405F0080011
:1014500048B106F0200010B907F0010018B1606C27
:1014600040F008006064606C002846D005F0200061
:1014700028B106F0200010B1204600F055FD20688C
:101480004069C0F3801A606C00F0080010B9BAF12E
:10149000000F2DD0204600F001FD2068406900F0CB
:1014A0004000402820D100BF00BF2168143151E81E
:1014B000001F21F040002168143141E80002002A99
:1014C000F3D100BFE06B50B17748E16B0865E06B8A
:1014D000FFF72DF888B1E06B016D88470DE02046DD
:1014E000FFF76FFF09E009E02046FFF76AFF04E01D
:1014F0002046FFF766FF002060647DE7206B01282F
:1015000078D105F01000002874D006F010000028F3
:10151000FAD000BF0020009020680068009020688A
:101520004068009000BF00BF2068406900F04000A4
:10153000402860D1E06B006840681FFA80F8B8F17D
:10154000000F56D0A08D404553DDA4F82E80E06BEF
:10155000C069B0F5807F43D000BF00BF21680C3167
:1015600051E8001F21F4807021680C3141E800022D
:10157000002AF3D100BF00BF00BF2168143151E839
:10158000001F21F001002168143141E80002002A07
:10159000F3D100BF00BF00BF2168143151E8001F24
:1015A00021F040002168143141E80002002AF3D103
:1015B00000BF202084F842000020206300BF00BF4D
:1015C00021680C3151E8001F21F0100021680C3116
:1015D00041E80002002AF3D100BFE06BFEF751FFA3
:1015E00002206063A08DE28D801A81B22046FFF751
:1015F000E7FE01E742E0A08DE18D401A1FFA80F876
:10160000E08DD0B3B8F1000F37D000BF00BF216824
:101610000C3151E8001F21F4907021680C3141E831
:101620000002002AF3D100BF00BF00BF21681431BF
:1016300051E8001F21F001002168143141E8000247
:10164000002AF3D100BF202084F84200002020634C
:1016500000BF00BF21680C3151E8001F21F01000CD
:1016600021680C3141E80002002AF3D100BF0220BA
:10167000606341462046FFF7A3FEBDE605F080000B
:1016800030B106F0800018B1204600F0EBFCB3E664
:1016900005F0400030B106F0400018B1204600F0DF
:1016A00033FCA9E600BFA7E6891E000870B5044612
:1016B0000D46164694F8420020280BD105B10EB90C
:1016C000012070BD0020206332462946204600F0EC
:1016D000A9FCF6E70220F4E710B50446204920688B
:1016E00088423BD11F48008800F4004088BB1D4859
:1016F000008800F4804070B11B4800780A2803D0AD
:1017000000201849088024E01648008840F4004072
:10171000144908801DE0144800780D2806D11148AE
:10172000008840F480400F49088012E00E4800789D
:101730000C490988C1F30D010C4A5054094800882E
:10174000401C0849088008460088C72801DD0020A1
:101750000880012204490648FFF7A8FF10BD0000D9
:1017600000100140180000201A000020A4030020EF
:101770006C040020704700BFFEE7000070B504460F
:10178000EF231A4600210846FEF73CFE01224021C5
:101790000748FEF7E1FF002506E0201200F018FAE6
:1017A000E0B200F015FA6D1CB5F5614FF5D370BDD0
:1017B0000000024070B504460D462B4622462946DD
:1017C0002046FEF71FFE0248008800F0D3F970BDE6
:1017D0009E03002000B587B000BF0020019096480E
:1017E000006840F00100944908600846006800F075
:1017F0000100019000BF00BF00BF002001908E4893
:101800001430006840F480508B4914310860084659
:10181000006800F48050019000BF00BFA02002903B
:101820000220039005900120049002A98348FEF74E
:1018300099FE502002900120039002200590012083
:10184000049002A97D48FEF78DFE012250217B48BD
:10185000FEF782FF7A487B4908604FF48270486047
:1018600038217848C16100218160C1604FF4007166
:1018700081610221016101214161002101628162D6
:101880000721C16200214162FFF784FB6D480068B7
:10189000006840F040006B49096808600022402160
:1018A0006648FEF759FF002210216448FEF754FFF6
:1018B0001420FEF750FE012210216048FEF74CFF75
:1018C0001420FEF748FE362000F074F9002000F0E6
:1018D00063F93A2000F06EF9052000F05DF9B220BE
:1018E00000F068F90C2000F057F90C2000F054F9D2
:1018F000002000F051F9332000F04EF9332000F0C1
:101900004BF9B72000F056F9352000F045F9BB201F
:1019100000F050F9192000F03FF9C02000F04AF91A
:101920002C2000F039F9C22000F044F9012000F029
:1019300033F9C32000F03EF9122000F02DF9C42045
:1019400000F038F9202000F027F9C62000F032F925
:101950000F2000F021F9D02000F02CF9A42000F095
:101960001BF9A12000F018F9E02000F023F9D020A5
:1019700000F012F9042000F00FF90D2000F00CF92E
:10198000112000F009F9132000F006F92B2000F0D7
:1019900003F93F2000F000F9542000F0FDF84C203E
:1019A00000F0FAF8182000F0F7F80D2000F0F4F835
:1019B0000B2000F0F1F81F2000F0EEF8232000F0DB
:1019C000EBF8E12000F0F6F8D02000F0E5F8042074
:1019D00000F0E2F80C2000F0DFF8112000F0DCF855
:1019E000132000F0D9F82C2000F0D6F83F2000F0AA
:1019F000D3F8442000F0D0F8512000F0CDF82F208B
:101A000000F0CAF81F2000F0C7F81F2000F0C4F84B
:101A1000202000F0C1F8232000F0BEF8212000F0C3
:101A2000C9F8112000F0C6F87820FEF794FD2920AF
:101A300000F0C0F807B000BD30380240000002409E
:101A400000300140B40400202DE9FF5F05460F4639
:101A50001646AA463348B0F800B0E02D01DCE02F6E
:101A600001DDBDE8FF9FA6F12000C6B207F10F031C
:101A7000EA1D39462846FEF7C5FC039858BB0024EA
:101A800026E004EB0610284911F800904FF00008FA
:101A900016E009F0010018B12248A0F800B003E0F8
:101AA000224800881F4908801E48008800F062F81C
:101AB0004FEA6909681C85B208F1010000F0FF08CF
:101AC000B8F1080FE5DB5546781C87B2601CC4B23C
:101AD000102CD6DB20E000241CE004EB0610124999
:101AE00011F800904FF000080FE009F0010030B14C
:101AF0003A1991B205EB080290B2FFF75BFE4FEA8C
:101B0000690908F1010000F0FF08B8F1080FECDBEB
:101B1000601CC4B2102CE0DB0248A0F800B000BF8B
:101B20009FE700009E0300205E2200089C03002027
:101B300070B505460E46144618E0E02D03DD00257D
:101B400006F1100086B2E02E06DD002005460646AE
:101B50004FF47840FFF712FE2278002331462846E2
:101B6000FFF772FF05F1080085B2641C2078002899
:101B7000E3D170BD10B50446012240210548FEF7AF
:101B8000EBFDC4F3072000F023F8E0B200F020F8EA
:101B900010BD00000000024010B5044601224021A3
:101BA0000348FEF7D9FD204600F012F810BD0000F2
:101BB0000000024010B50446002240210348FEF711
:101BC000CBFD204600F004F810BD000000000240EC
:101BD00001B582B004480068012301AA02A900905F
:101BE0000248FFF747FA0EBDA0030020B40400200E
:101BF00000BFFEE7704770477CB504460E461546A9
:101C00003346012202212046009500F039F828B120
:101C1000606D40F02000606503207CBD16480068C0
:101C20001821B0FBF1F01549B0FBF1F04FF47A71D7
:101C3000484301906068B0F5827F0DD133460022A1
:101C400080212046009500F01BF898B1606D40F0AF
:101C5000200060650320E0E700BF019800B908E0BC
:101C60000198401E019020688068C0F3C0100028D1
:101C7000F3D100BF0020D0E70000002040420F0059
:101C80002DE9F84F04460D4690461E46DDF8289093
:101C9000FEF76EFDA0EB0900371AFEF769FD8246DC
:101CA0002C480068C0F3CB307843009045E0701CAE
:101CB000002842D0FEF75CFDA0EB0A00B84200D23B
:101CC000A7BB2068406820F0E00021684860606899
:101CD000B0F5827F0DD1A068B0F5004F03D0A068A9
:101CE000B0F5806F05D12068006820F040002168C1
:101CF0000860A06AB0F5005F0DD100BF20680068E1
:101D000020F40050216808602068006840F400500A
:101D10002168086000BF012084F8510000BF002046
:101D200084F8500000BF0320BDE8F88FFFE700985B
:101D300000B900270098401E009020688068284065
:101D4000A84201D1012000E000204045AFD1002091
:101D5000EAE7000000000020704710B5FEF70EFD16
:101D600010BD000000B593B000BF002001902A48CC
:101D7000006840F08050284908600846006800F07C
:101D80008050019000BF00BF00BF00200190234899
:101D9000006840F48040214908600846006800F46B
:101DA0008040019000BF00BF01200290000403901A
:101DB000022008904105099108210A914FF4A87169
:101DC0000B9102210C9107210D9102A8FEF794FEC0
:101DD00008B1FEF754FB0F200E9002200F90002058
:101DE00010904FF4A05011904FF4805012900521A4
:101DF0000EA8FEF767FD08B1FEF741FBFEF7B2FC47
:101E0000B0F5805F05D90648006840F48070044949
:101E1000086013B000BD0000403802400070004070
:101E2000003C02401448006840F470001249086009
:101E30001248006840F001001049086000200F4976
:101E4000083108600D4800680D4908400B490860DA
:101E50000C48091D0860081F006820F48020091F35
:101E60000860002005490C3108604FF0006002490D
:101E7000803908607047000088ED00E000380240BB
:101E8000FFFFF6FE1030002470B50546AC6B002055
:101E9000E085E0842046FFF794FA70BD00BF00BFE4
:101EA00002680C3252E8002F22F4907102680C3262
:101EB00042E80013002BF3D100BF00BF00BF02684F
:101EC000143252E8002F22F001010268143242E875
:101ED0000013002BF3D100BF016B01290ED100BF0D
:101EE00000BF02680C3252E8002F22F01001026895
:101EF0000C3242E80013002BF3D100BF202180F800
:101F0000421000210163704710B504462068C06884
:101F100020F040002168C860202084F8410020465D
:101F2000FFF728FC002010BDF8B5044694F84200E5
:101F3000222875D1A068B0F5805F0CD1206950B916
:101F40000025A66A20684068C0F308003080A06AB7
:101F5000801CA06215E0A56A0026A068B0F5805F2D
:101F600003D0A06828B9206918B920684068287093
:101F700004E02068406800F07F002870A06A401CE0
:101F8000A062E08D401E80B2E085002846D1206826
:101F9000C06820F020002168C8602068C06820F474
:101FA00080702168C8602068406920F001002168C5
:101FB0004861202084F8420000206063206B0128E3
:101FC00026D10020206300BF00BF21680C3151E8FA
:101FD000001F21F0100021680C3141E80002002AA6
:101FE000F3D100BF2068006800F0100010280AD16B
:101FF00000BF0020009020680068009020684068C2
:10200000009000BF00BFA18D2046FFF7D9F902E084
:102010002046FFF761FB0020F8BD01E00020FBE750
:102020000220F9E710B5034699629A85DA85002007
:102030005864222083F84200186928B11868C068E3
:1020400040F480701C68E0601868406940F001004E
:102050001C6860611868C06840F020001C68E0607F
:10206000002010BD014691F84100212828D1886840
:10207000B0F5805F0BD1086948B90A6A1088C0F3CF
:1020800008000B685860086A801C086205E00B6A4B
:10209000581C086218780B685860C88C401E80B2C3
:1020A000C88458B90868C06820F080000B68D86000
:1020B0000868C06840F040000B68D8600020704796
:1020C0000220FCE710B50248FFF77CF910BD0000C4
:1020D0006C04002000BFFEE702480068C0F3022045
:1020E000704700000CED00E010B5002804DB0A0783
:1020F000130E054A135406E00A07140E034A00F0B3
:102100000F031B1FD45410BD00E400E018ED00E0E5
:1021100000BF7047014908607047000010000020B0
:1021200010B504464FF47A7104FB01F000F002F898
:1021300010BD000070B5034600224FF0E02675691F
:102140000D4E366803FB06F44FF0E026B16910E04F
:102150004FF0E026B06988420BD0884202D20E1AB6
:10216000324402E02E1A0E4432440146A24200D309
:1021700000E0EDE700BF70BD1000002086B0FEF764
:1021800009FBFFF7EFFDA820FFF7C4FF00BF002009
:1021900000902248006840F010002049086008467E
:1021A000006800F01000009000BF00BF4FF4C06056
:1021B00001900120029003900220049001A9184888
:1021C000FEF7D0F9012291021548FEF7C5FAFFF794
:1021D00001FB4FF6FF701349088000201249088068
:1021E0004FF6FF70FFF7CAFA10A232210846FFF738
:1021F0009FFC12E000224FF400710948FEF7ACFA90
:102200004FF47A70FEF7A7F9012251020448FEF755
:10221000A3FA4FF47A70FEF79EF9EBE730380240EC
:10222000001002409C0300209E03002048656C6C57
:102230006F2C20576F726C64000000004FF04070EC
:10224000E1EE100A704700000000000000000102EB
:10225000030406070809000000000102030400004F
:10226000000000000000000000000000000000006E
:1022700000080808080808080000181800000048AE
:102280006C241200000000000000000000000000AC
:10229000002424247F1212127F1212120000000068
:1022A000081C2A2A0A0C1828282A2A1C08080000B8
:1022B0000022251515152A585454542200000000F8
:1022C000000C1212120A76252911916E00000006E8
:1022D00006040300000000000000000000000040B1
:1022E00020101008080808080810102040000002FC
:1022F0000408081010101010100808040200000054
:10230000000008086B1C1C6B08080000000000009F
:102310000000080808087F080808080000000000FE
:10232000000000000000000000000606040300009A
:10233000000000000000FE0000000000000000009F
:102340000000000000000000000006060000000081
:102350008040402020101008080404020200000001
:102360000018244242424242424224180000000027
:1023700000080E08080808080808083E00000000C9
:10238000003C4242422020100804427E000000002F
:10239000003C4242201820404042221C0000000025
:1023A00000203028242422227E20207800000000F3
:1023B000007E0202021A26404042221C0000000059
:1023C00000382402021A264242422418000000006B
:1023D000007E2222101008080808080800000000EB
:1023E000003C4242422418244242423C0000000089
:1023F00000182442424264584040241C000000005F
:10240000000000001818000000001818000000006C
:1024100000000000000800000000000808040000A0
:1024200000402010080402040810204000000000B2
:10243000000000007F0000007F000000000000009E
:1024400000020408102040201008040200000000D0
:10245000003C4242464020101000181800000000C6
:10246000001C225A555555552D42221C00000000D3
:10247000000808181414243C224242E7000000001F
:10248000001F2222221E22424242221F0000000080
:10249000007C4242010101010142221C00000000B7
:1024A000001F2242424242424242221F00000000DC
:1024B000003F4212121E12120242423F0000000070
:1024C000003F4212121E1212020202070000000018
:1024D000003C2222010101712122221C0000000087
:1024E00000E7424242427E42424242E70000000090
:1024F000003E0808080808080808083E0000000018
:10250000007C10101010101010101010110F00008F
:10251000007722120A0E0A1212222277000000000F
:1025200000070202020202020202427F00000000D3
:102530000077363636362A2A2A2A2A6B000000000F
:1025400000E346464A4A5252526262470000000087
:10255000001C2241414141414141221C0000000038
:10256000003F424242423E020202020700000000D7
:10257000001C2241414141414D53321C600000008A
:10258000003F4242423E1212222242C70000000097
:10259000007C4242020418204042423E00000000FB
:1025A000007F4908080808080808081C0000000007
:1025B00000E74242424242424242423C00000000A6
:1025C00000E74242222424141418080800000000E6
:1025D000006B494949495555362222220000000026
:1025E00000E7422424181818242442E700000000C1
:1025F00000772222141408080808081C00000000B4
:10260000007E2120101008040442423F00000078A0
:1026100008080808080808080808080878000000E2
:102620000202040408080810102020204040001E68
:102630001010101010101010101010101E00003884
:102640004400000000000000000000000000000046
:1026500000000000000000000000000000FF000675
:102660000800000000000000000000000000000062
:1026700000000000003C4278444242FC00000000A0
:1026800000030202021A26424242261A00000000FB
:10269000000000000038440202024438000000003C
:1026A0000060404040784442424264D8000000004C
:1026B00000000000003C427E0202423C000000009C
:1026C00000F08808087E08080808083E000000009E
:1026D00000000000007C22221C023C42423C000020
:1026E00000030202023A4642424242E70000000072
:1026F000000C0C00000E08080808083E000000004E
:10270000003030000038202020202020221E000031
:10271000000302020272120A161222770000000061
:10272000000E0808080808080808083E0000000015
:1027300000000000007F9292929292B70000000089
:1027400000000000003B4642424242E70000000019
:1027500000000000003C42424242423C00000000B7
:1027600000000000001B26424242221E0207000019
:1027700000000000007844424242447840E00000FB
:102780000000000000774C040404041F0000000057
:1027900000000000007C42023C40423E000000007D
:1027A00000000008083E0808080808300000000083
:1027B0000000000000634242424262DC0000000070
:1027C0000000000000E74224241408080000000074
:1027D0000000000000EB494955552222000000008E
:1027E00000000000007624181818246E0000000075
:1027F0000000000000E74224241418080807000025
:1028000000000000007E22100808447E000000C086
:10281000202020202010202020202020C000101068
:1028200010101010101010101010101010100006C2
:1028300008080808081008080808080806000C32EC
:10284000C2000000000000000000000000000000C6
:102850007028000800000020A4030000C401000844
:10286000F0290008A4030020CC0700002002000883
:10287000115324F432100218012A8004191ED904BD
:10288000080D1A1080010CF0FFFF0F3080010404C6
:1028900019246A070C09124809100401131A0119B6
:1028A00014FFFF011A03082904E90C3381812A036C
:1028B00004261CFCFFFF3F1A400B5AC0282AC00CFC
:1028C00049041BFFFF4C22411A0468230E711B07A9
:1028D000815A14010760100B010E1898011C04E0C6
:1028E00001181927F11A08C4231F304A0C0468097B
:1028F000100C30FE3F0C30041069041BC00C281E65
:102900000D3030060E049C0C3010044B1886041059
:102910001208060D300C860D3006EE0F3002FC0D4D
:1029200030015B0CF040193C2A0F081A109ED12987
:102930009019CB4908890417E0FFFF0360C0091311
:102940000409161C59181A010429441A08045A10BB
:102950000419F8130138041780FF1F2603C0FFFF76
:10296000071A8004293D326032181A0C135A0304E6
:1029700019A41C800108045E1CFCFFFF3F100928FD
:10298000041AFC0432E082401BF888012AFF050289
:1029900015F81B1F08012A7F2004119F80F03B803F
:1029A0008201000916E2A2928A8682808004184081
:1029B000807F172424A4FEA3222322CC0214FF1517
:1029C000080601FF2B0104010511FF02020258084D
:1029D000101010FF109008C3021108080F140444CF
:1029E000827F01808040432C10284681A023E80389
:040000050800018965
:00000001FF
